:1000000006308A00E72E0000FF00030E8301A100E6
:100010000A08A0008A010408A2007708A300780853
:10002000A4007908A5007A08A60003170D08031399
:10003000A70003170F080313A80003170C080313E6
:10004000A90003170E080313AA00831383120B1EC3
:100050002B288B1852288C308400801E31288C1A53
:100060005528220884002308F7002408F8002508F2
:10007000F9002608FA00270803178D000313280843
:1000800003178F000313290803178C0003132A0892
:1000900003178E00031320088A00210E8300FF0E31
:1000A0007F0E09008A110A126A288A110A12602832
:1000B0000A108A100A11820728340F3401340634DA
:1000C0002C148C1E61281A08AD00AC148C128A11F5
:1000D0000A123128BC018B108A110A1231288C2097
:1000E000C426AD18203EA02AD322D2163205000025
:1000F0008C24441D0A000C22C923492A45104110B2
:10010000D3224E24411D200500010C21C526202BA1
:100110004927C4270A008C244E2B412649224F052B
:1001200000018C20C322D3294F10CE22C720C42720
:100130000A008C20C322D3294F10CE22C720C42707
:100140000A008C20C322D3294F10CE22C720C427F7
:100150000A008C20C322D3294F10CE22C720C427E7
:100160000A008C244410CE275410C6275527440576
:1001700000018C244410CE275410C6275527441D57
:10018000200500000C22C923492A45104F28C3200E
:100190004F1D20008C24441041224D1D0A000C22CA
:1001A000C923492A45104110D3224E24411D200560
:1001B00000018C244E2B412649224F0500018C2042
:1001C000C322D3294F10CE22C720C4270A008C2077
:1001D000C322D3294F10CE22C720C4270A008C2067
:1001E000C322D3294F10CE22C720C4270A008C2057
:1001F000C322D3294F10CE22C720C4270A008C2443
:100200004410CE275410C6275527440500018C24DE
:100210004410CE275410C6275527441D2005000042
:100220008C2444104110C422CC22D420521D20051D
:1002300000018C2444104128C12341224F008C240A
:100240004410CE204F104527C3274E2AD220C42762
:100250003A100A008C244410CE204F104527C327A3
:100260004E2AD220C4273A100A008C244410C420FD
:100270002021D529C3203A100A008C24441DA01245
:10028000E3126310533A613A731DA01263008A2986
:100290006537E8303A10A531A531A531A531000107
:1002A0008C244410CE204F104527C3274E2AD2203D
:1002B000C4273A100A008C244410CE204F10452742
:1002C000C3274E2AD220C4273A100A008C2141228B
:1002D000C12954294129A020C4260A000C22C9237F
:1002E000492A45104F1049223A100A000C22C9230E
:1002F000492A45104110D3224E24411D20050001FA
:100300000C22C923492A45104F10532A412AD529C6
:100310003A100A008C216132E13974396137E437CF
:1003200000018C216132E139743961326F000C2295
:10033000C923492A45104F1049223A100A000C22BD
:10034000C923492A45104110D3224E24411D2005BE
:1003500000010C22C923492A45104F10532A412A73
:10036000D5293A100A008C216132E139743961379C
:10037000E43700018C216132E139743961326F0058
:100380008C224E2BC9204E224F008C20F43A61362D
:10039000693D6137E4372E172E050000AB152B0899
:1003A0008316870083122B162B088316870083126F
:1003B0008A110A12062F683084008313000803197B
:1003C000EE290630F800F701F70BE429F80BE329D2
:1003D0007B30F700F70BEA29800BE12908006F1842
:1003E000F3290812F4290816831608128312EF184D
:1003F000FB298812FC2988168316881283126F192C
:10040000032A0813042A0817831608138312EF1906
:100410000B2A88130C2A88178316881389108312D5
:100420008914831689108312891008008316091114
:1004300083120911EC08031D1F2A0911202A09152E
:1004400083160911A630F700F70B242A0000891043
:10045000831289106D0EEE000F30EE056E08EF006E
:10046000EF216D080F39EE00EF00EF210800831631
:1004700008128312081283168812831288128316B8
:1004800008138312081383168813831288138316A4
:1004900009118312091183168910831289100F30F4
:1004A000E800DB210130C6004608033C031C602A3B
:1004B0000330EF00EF210530E800DB21C60A542AA3
:1004C0000230EF00EF21C6014608033C031C712AED
:1004D00046085820C700EC014708ED001622C60A5E
:1004E000642A8A110A120A2F67080C3A0319822A11
:1004F000063A03198A2A073A03198A2A053A031980
:10050000A02AA52AEC010130ED0016220230E800F5
:10051000DB21AA2A0130E8000230E900690B912AA8
:10052000942A4030EA00952AEA0101306802EA077D
:100530006A088038EB00EC016B08ED001622AA2A4D
:10054000EC011030ED001622AA2A0130EC006708F9
:10055000ED00162208000B08E3008B138316031727
:100560008C170C140000000083120313E31B8B177D
:1005700003170C087F390319FF2A0313E30003173D
:100580000D080313E40003170F080313E5006308C5
:10059000E7007422640803178D000313650803172E
:1005A0008F0003130B08E6008B13831603178C17B9
:1005B0000C140000000083120313E61B8B170317B3
:1005C0000C0D0E0D7F390319FF2A0313E3000317E7
:1005D0000D080313E40003170F080313E500630875
:1005E000E7007422640803178D00031365080317DE
:1005F0008F008D0A03198F0A0313AB2A0317031305
:1006000008000830F8000430F700F70B052B8711BD
:10061000AB112B08831687000330F700F70B0E2B66
:100620008312E80D0712031C1B2B2B162B088316B5
:1006300087001F2B83122B122B08831687000000C4
:100640008312AB152B08831687008312871D262B78
:10065000F80B032B0430F700F70B2C2B8711AB1191
:100660002B0883168700000083122B162B08831695
:1006700087000330F700F70B3B2B0330F700F70B35
:100680003F2B8312AB152B08831687008312871D1F
:10069000472BF8010330F700F70B4C2B071A78149F
:1006A0008711AB112B0883168700831207122B12B8
:1006B0002B0883168700831208002B162B0883163D
:1006C00087000430F700F70B632B8312AB152B0860
:1006D000831687000330F700F70B6C2B8312071289
:1006E0002B122B08831687000430F700F70B762BAC
:1006F00083128711AB112B0883168700A030831259
:10070000E800012378086710781867142B122B086B
:100710008316870000008312AB152B088316870011
:100720008312871D912B0430F700F70B952B982B24
:1007300000002B162B08831687000430F700F70BF8
:100740009F2B00308312671C0130F80008005D23E6
:10075000F8080319A72B2B162B08831687000430E3
:10076000F700F70BB12B8312AB152B08831687000C
:100770000330F700F70BBA2B831207122B122B084A
:10078000831687000430F700F70BC42B8312871100
:10079000AB112B08831687008312650CFA00640CDA
:1007A000F900FA0CF90CFA0CF90CFA0CF90CFA0C29
:1007B000F90CFA0CF90CFA0CF90C0130FA0579086D
:1007C000A038FE39E700E80001236408E8000123AF
:1007D0002B162B08831687000430F700F70BEE2B3F
:1007E0008312AB152B08831687000330F700F70B35
:1007F000F72B8312871DFA2B07122B122B08831657
:1008000087000430F700F70B032C83128711AB111C
:100810002B08831687008312650CFA00640CF9001C
:10082000FA0CF90CFA0CF90CFA0CF90CFA0CF90C9C
:10083000FA0CF90CFA0CF90C0130FA057908A03819
:100840000138E700E8000123F7010830E8007708E5
:10085000E9002B162B08831687000330F700F70BEF
:100860002F2C8312AB152B08831687008312871D4C
:10087000372C071A0314071E0310F80D0430F70075
:10088000F70B402CAB112B088316870083128711BE
:10089000E80B292C2B162B08831687000330F70052
:1008A000F70B502C83120712690803195C2C2B12CA
:1008B0002B088316870083120000AB152B088316C4
:1008C00087008312871D622C0430F700F70B662C1B
:1008D0008711AB112B08831687000330F700F70B45
:1008E0006F2C831207122B122B08831687007808AF
:1008F0008312E6002B122B08831687000000831258
:10090000AB152B08831687008312871D852C0430B6
:10091000F700F70B892C8C2C00002B162B08831664
:1009200087000430F700F70B932C83126608F80059
:100930000800D501D701C03003178D0001308F00AA
:100940000313AB22570BA52C012D5508D600E5014A
:100950005608E400A7237808AE00D60AE501560839
:10096000E400A7237808AF00D60AE5015608E400A2
:10097000A7237808B000D60AE5015608E400A723AB
:100980007808B100D60AE5015608E400A7237808E4
:10099000B200D60AE5015608E400A7237808B300A0
:1009A000D60AE5015608E400A7237808B400D60A61
:1009B0002E080C1ED92C99002F080C1EDD2C990036
:1009C00030080C1EE12C990031080C1EE52C990012
:1009D00032080C1EE92C990033080C1EED2C9900EE
:1009E00034080C1EF12C99000730D5075508493CF6
:1009F0000318002D21300C1EFB2C99000130D7006C
:100A0000A22C0630D800FA30E800DB21D80B032DE9
:100A10000800E401E50163086402031C122DE308E9
:100A2000031D272EE508031D272E831606108312AB
:100A300006108316861083128614831606118312FD
:100A4000061583168611831286151430E800DB2103
:100A50008316081483120818342D83160814831281
:100A6000081C2D2D3130E500831688148312881858
:100A7000402D831688148312881C392D3430E500EC
:100A800083160815831208194C2D83160815831236
:100A9000081D452D3730E500831688158312881907
:100AA000582D831688158312881D512D2A30E50094
:100AB000831606108312061483168610831286107E
:100AC0008316061183120615831686118312861566
:100AD0001430E800DB218316081483120818772DE0
:100AE000831608148312081C702D3230E50083161B
:100AF000881483128818832D831688148312881C07
:100B00007C2D3530E50083160815831208198F2DCA
:100B1000831608158312081D882D3830E5008316CA
:100B20008815831288199B2D831688158312881DBA
:100B3000942D3030E50083160610831206148316B8
:100B400086108312861483160611831206118316EB
:100B50008611831286151430E800DB2183160814F1
:100B600083120818BA2D831608148312081CB32D9B
:100B70003330E5008316881483128818C62D831637
:100B800088148312881CBF2D3630E50083160815A3
:100B900083120819D22D831608158312081DCB2D38
:100BA0003930E5008316881583128819DE2D8316E7
:100BB00088158312881DD72D2330E5008316061073
:100BC0008312061483168610831286148316061168
:100BD0008312061583168611831286111430E800DD
:100BE000DB218316081483120818FD2D83160814C0
:100BF0008312081CF62D4130E500831688148312F9
:100C00008818092E831688148312881C022E4230FD
:100C1000E5008316081583120819152E831608158A
:100C20008312081D0E2E4330E500831688158312AB
:100C30008819212E831688158312881D1A2E443098
:100C4000E5000530E800DB210530E4070B2DE50861
:100C5000031D2C2E4030E5006508F80008005D23D8
:100C6000F80803192F2E2B162B0883168700043043
:100C7000F700F70B392E8312AB152B08831687006C
:100C80000330F700F70B422E831207122B122B08AA
:100C9000831687000430F700F70B4C2E8312871160
:100CA000AB112B08831687008312640CFA00630CC7
:100CB000F900FA0CF90CFA0CF90CFA0CF90CFA0C14
:100CC000F90CFA0CF90CFA0CF90C0130FA05790858
:100CD000A038FE39E600E80001236308E80001239C
:100CE0006508E80001232B122B08831687000000FB
:100CF0008312AB152B08831687008312871D7E2E67
:100D00000430F700F70B822E852E00002B162B08DF
:100D1000831687000430F700F70B8C2E831208002F
:100D20000B08E4008B13831603178C170C140000B8
:100D3000000083120313E41B8B170318C72E03173D
:100D40000C087F390313E40003170D080313E500B3
:100D500003170F080313E6006408E7007422650810
:100D600003178D000313660803178F0003130B0886
:100D7000E7008B13831603178C170C140000000078
:100D800083120313E71B8B17E30BC72EE62E031703
:100D90000C0D0E0D7F390313E40003170D08031328
:100DA000E50003170F080313E6006408E700742248
:100DB000650803178D000313660803178F008D0A5B
:100DC00003198F0A03100313E30B902E0800030886
:100DD0001F398300FF30AB00813083169900A630A5
:100DE00098009030831298002C10AC10BC01BD010B
:100DF000BF010730C000C201C10183161F149F1438
:100E00001F159F119C0083138312CE290B16C0302F
:100E10008B04372A3230E800DB21C401C5012C18CD
:100E200099240730C000BC08031D192F8A15002023
:100E30008A11BD08031D5A2F6F3003178D00003033
:100E40008F000313AB22DC30E30009257808BE00D5
:100E5000C508031D382F3E08403C031D352FDC30EC
:100E6000E30009257808BE00372F0130C500282F80
:100E70003E08E7007422440B3E2F4A2FDC30E3008B
:100E800009257808C3004308233C031D492F01307E
:100E9000C4003B2F3E08313A0319522F033A03197D
:100EA000562F592F8A150C2D8A11592F0A160028F2
:0E0EB0000A125D2F8A1588228A110D2F630009
:10100000D501D601D701D8010730DB00BC08031D8C
:101010004329663003178D0001308F008A110313B6
:10102000AB228A150630DC00FA30E8008A11DB2199
:101030008A15DC0B14286E3003178D0001308F00E9
:101040008A110313AB228A155508013C031C4E2854
:10105000DC30E3008A1109258A157808D900D80800
:10106000031D41285908403C031D3E28DC30E300A5
:101070008A1109258A157808D90040280130D8003E
:101080002F285908E7008A1174228A153530550730
:101090008400831359088000D50A2428560B512850
:1010A0005F28DC30E3008A1109258A157808DA0008
:1010B0005A08233C031D5E280130D6004E28D60175
:1010C0002030DA00D501D801763003178D000130C9
:1010D0008F008A110313AB228A155508033C031CA9
:1010E0009728DC30E3008A1109258A157808D90091
:1010F000D808031D8A285908403C031D8728DC3086
:10110000E3008A1109258A157808D9008928013059
:10111000D80078285908E7008A1174228A153730D8
:1011200055078400831359088000D50A6D28560B93
:101130009A28A828DC30E3008A1109258A15780846
:10114000DA005A08233C031DA7280130D60097284F
:10115000D601D801803003178D0001308F008A112D
:101160000313AB228A15DC30E3008A1109258A15A6
:101170007808D900D808031DCC285908403C031D25
:10118000C928DC30E3008A1109258A157808D900BE
:10119000CB280130D800BA28D8015908E7008A11B5
:1011A00074228A155908BB00560BD728E528DC3075
:1011B000E3008A1109258A157808BE003E08233C01
:1011C000031DE4280130D600D4288A3003178D008F
:1011D00001308F008A110313AB228A150630DC0020
:1011E000FA30E8008A11DB218A15DC0BF028E401D3
:1011F000E3013508E5008A112F268A15E401013044
:10120000E3003608E5008A112F268A15E401023032
:10121000E3003708E5008A112F268A15E401033020
:10122000E3003808E5008A112F268A15E40104300E
:10123000E3003908E5008A112F268A15E4010530FC
:10124000E3003A08E5008A112F268A15E4010630EA
:10125000E3003B08E5008A112F268A150130BC0007
:10126000913003178D0001308F008A110313AB22D8
:101270008A150630DC00FA30E8008A11DB218A1575
:10128000DC0B3B29872A973003178D0001308F0034
:101290008A110313AB228A153E08233C03197A29CD
:1012A0005508013C031C7A29DC30E3008A1109252A
:1012B0008A157808D900D808031D6D295908403CC3
:1012C000031D6A29DC30E3008A1109258A15780894
:1012D000D9006C290130D8005B295908E7008A1130
:1012E00074228A152E305507840083135908800014
:1012F000D50A4C29560B7D298B29DC30E3008A1155
:1013000009258A157808DA005A08233C031D8A2922
:101310000130D6007A29D6012030DA00D501D80173
:101320009F3003178D0001308F008A110313AB2209
:101330008A155508033C031CC329DC30E3008A11DD
:1013400009258A157808D900D808031DB629590837
:10135000403C031DB329DC30E3008A1109258A15BE
:101360007808D900B5290130D800A4295908E70028
:101370008A1174228A153030550784008313590866
:101380008000D50A9929560BC629D429DC30E30000
:101390008A1109258A157808DA005A08233C031DAA
:1013A000D3290130D600C329D601D801A9300317AB
:1013B0008D0001308F008A110313AB228A15DC30B7
:1013C000E3008A1109258A157808D900D808031D79
:1013D000F8295908403C031DF529DC30E3008A1147
:1013E00009258A157808D900F7290130D800E6299F
:1013F000D8015908E7008A1174228A155908B400E7
:10140000560B032A112ADC30E3008A1109258A15BC
:101410007808BE003E08233C031D102A0130D60088
:10142000002AB33003178D0001308F008A11031397
:10143000AB228A150630DC00FA30E8008A11DB2185
:101440008A15DC0B1C2A5708483C031C752AE50149
:101450005B08E4008A11A7238A15780F712AE4013A
:101460005B08E3002E08E5008A112F268A15DB0AA7
:10147000E4015B08E3002F08E5008A112F268A1596
:10148000DB0AE4015B08E3003008E5008A112F263F
:101490008A15DB0AE4015B08E3003108E5008A11E4
:1014A0002F268A15DB0AE4015B08E3003208E50019
:1014B0008A112F268A15DB0AE4015B08E300330852
:1014C000E5008A112F268A15DB0AE4015B08E30098
:1014D0003408E5008A112F268A15DB0A4B30D70025
:1014E000732A0730DB07D70A232ABA3003178D0087
:1014F00001308F008A110313AB228A150630DC00FD
:10150000FA30E8008A11DB218A15DC0B802A0800FA
:10151000D201D301C23003178D0000308F008A1131
:101520000313AB228A15DC30E3008A1109258A15E2
:101530007808BE00D308031DAC2A3E08403C031DBA
:10154000A92ADC30E3008A1109258A157808BE0033
:10155000AB2A0130D3009A2A3E08E7008A11742290
:101560008A15520BB42AC22ADC30E3008A110925FD
:101570008A157808D4005408233C031DC12A013081
:10158000D200B12A31303E02FB3E0318022D053E47
:10159000032DD501D601D701D901E201353003175A
:1015A0008D0001308F008A110313AB228A15590870
:1015B000013C031C012BDC30E3008A1109258A154C
:1015C0007808D800D708031DF42A5808403C031DAA
:1015D000F12ADC30E3008A1109258A157808D80041
:1015E000F32A0130D700E22A5808E7008A11742252
:1015F0008A155B3059078400831358088000D90A84
:10160000D72A550B042B122BDC30E3008A11092555
:101610008A157808BE003E08233C031D112B0130BB
:10162000D500012BD701D501560B172B002C6208D2
:10163000DA00E5015A08E4008A11A7238A155B083D
:101640007802031DE52B01305A07E300E50163082A
:10165000E4008A11A7238A155C087802031DCA2BAF
:10166000E5015A08E4008A11A7238A157808AE001C
:10167000DA0AE5015A08E4008A11A7238A157808D6
:10168000AF00DA0AE5015A08E4008A11A7238A1597
:101690007808B000DA0AE5015A08E4008A11A723A5
:1016A0008A157808B100DA0AE5015A08E4008A11BF
:1016B000A7238A157808B200DA0AE5015A08E4007F
:1016C0008A11A7238A157808B300DA0AE5015A08B7
:1016D000E4008A11A7238A157808B400DA0A3D309D
:1016E00003178D0001308F00031005300313E30052
:1016F0008A1190268A152E08E7008A1174228A150D
:101700002F08E7008A1174228A15413003178D00D3
:1017100001308F00031408300313E3008A11902670
:101720008A153408E7008A1174228A154730031796
:101730008D0001308F00031008300313E3008A117D
:1017400090268A153008E7008A1174228A1531081C
:10175000E7008A1174228A153208E7008A11742280
:101760008A153308E7008A1174228A15550BB92BA4
:10177000C72BDC30E3008A1109258A157808BE00E2
:101780003E08233C031DC62B0130D500B62B01308B
:10179000D600E42B0730E2076208493C0318E42B2B
:1017A000503003178D0001308F008A110313AB22D4
:1017B0008A150630E300FA30E8008A11DB218A1529
:1017C000E30BDB2B0130D600FF2B0730E20762086A
:1017D000493C0318FF2B5B3003178D0001308F004D
:1017E0008A110313AB228A150630E300FA30E800B1
:1017F0008A11DB218A15E30BF62B0130D600142B5E
:10180000022D0020022DD501D601D701D901E20118
:10181000103003178D0001308F008A110313AB22A3
:101820008A155908013C031C3B2CDC30E3008A116B
:1018300009258A157808D800D608031D2E2C5808CB
:10184000403C031D2B2CDC30E3008A1109258A154E
:101850007808D8002D2C0130D6001C2C5808E70041
:101860008A1174228A155A30590784008313580844
:101870008000D90A112C550B3E2C4C2CDC30E30097
:101880008A1109258A157808BE003E08233C031DED
:101890004B2C0130D5003B2CD601D501570B512CD8
:1018A000FC2C6208E100E5016108E4008A11A7232D
:1018B0008A155A087802031DE12C01306107E30004
:1018C000E5016308E4008A11A7238A155B08780202
:1018D000031DC62CE4016108E300FF30E5008A1116
:1018E0002F268A15E10AE4016108E300FF30E500D4
:1018F0008A112F268A15E10AE4016108E300FF300E
:10190000E5008A112F268A15E10AE4016108E30047
:10191000FF30E5008A112F268A15E10AE4016108EB
:10192000E300FF30E5008A112F268A15E10AE40161
:101930006108E300FF30E5008A112F268A15E10ACD
:10194000E4016108E300FF30E5008A112F268A15C3
:10195000E10A193003178D0001308F008A1103133B
:10196000AB228A15550BB52CC32CDC30E3008A1151
:1019700009258A157808BE003E08233C031DC22CA9
:101980000130D500B22C0130D700E02C0730E2073F
:101990006208493C0318E02C1F3003178D0001300A
:1019A0008F008A110313AB228A150630E300FA3048
:1019B000E8008A11DB218A15E30BD72C0130D70010
:1019C000FB2C0730E2076208493C0318FB2C2A3045
:1019D00003178D0001308F008A110313AB228A1583
:1019E0000630E300FA30E8008A11DB218A15E30BA8
:1019F000F22C0130D7004E2C022D8A1199248A1521
:101A0000022DBD0108000A148A100A158207C92A8E
:101A1000012C032CFD2C012DC701C801C901CA30BE
:101A200003178D0000308F008A110313AB228A1533
:101A30004708013C031C422DDC30E3008A110925D4
:101A40008A157808CA00C808031D352D4A08403C8D
:101A5000031D322DDC30E3008A1109258A15780830
:101A6000CA00342D0130C800232D4A08E7008A112E
:101A700074228A154B304707840083134A0880007C
:101A8000C70A182D490B452D532DDC30E3008A1170
:101A900009258A157808C6004608233C031D522DE7
:101AA0000130C900422DC9012030C600C701C8015C
:101AB000CF3003178D0000308F008A110313AB2243
:101AC0008A154708033C031C8B2DDC30E3008A1188
:101AD00009258A157808CA00C808031D7E2D4A0802
:101AE000403C031D7B2DDC30E3008A1109258A155B
:101AF0007808CA007D2D0130C8006C2D4A08E70027
:101B00008A1174228A154D304707840083134A08CE
:101B10008000C70A612D490B8E2D9C2DDC30E3001F
:101B20008A1109258A157808C6004608233C031D3A
:101B30009B2D0130C9008B2DC901490BA02DAE2D65
:101B4000DC30E3008A1109258A157808C6004608AA
:101B5000233C031DAD2D0130C9009D2DC901E501B8
:101B6000E4018A11A7238A154B087802031D6A2E07
:101B7000E5010130E4008A11A7238A154C08780298
:101B8000031D572EE5010230E4008A11A7238A15B0
:101B90004D087802031D442EE5010330E4008A114C
:101BA000A7238A154E087802031D312EE501043063
:101BB000E4008A11A7238A154F087802031D1E2E00
:101BC000E5010530E4008A11A7238A155008780240
:101BD000031D0B2EE5010630E4008A11A7238A15A8
:101BE0007808313C031DF82D0130BD0088220A2EF3
:101BF000D93003178D0000308F008A110313AB22F8
:101C00008A150630D200FA30E8008A11DB218A15E5
:101C1000D20B032E1D2EDF3003178D0000308F00F6
:101C20008A110313AB228A150630D200FA30E8007D
:101C30008A11DB218A15D20B162E302EE7300317BE
:101C40008D0000308F008A110313AB228A150630F5
:101C5000D200FA30E8008A11DB218A15D20B292E36
:101C6000432EEF3003178D0000308F008A110313CD
:101C7000AB228A150630D200FA30E8008A11DB2147
:101C80008A15D20B3C2E562EF73003178D000030EC
:101C90008F008A110313AB228A150630D200FA3066
:101CA000E8008A11DB218A15D20B4F2E692EFF30F6
:101CB00003178D0000308F008A110313AB228A15A1
:101CC0000630D200FA30E8008A11DB218A15D20BE7
:101CD000622E7C2E073003178D0001308F008A1191
:101CE0000313AB228A150630D200FA30E8008A11BD
:0E1CF000DB218A15D20B752E8A110A12592F8C
:10200000C601C701C801C901CD01783003178D0091
:1020100000308F000A120313AB220A164608013C57
:10202000031C3828DC30E3000A1209250A16780858
:10203000CB00C908031D2B284B08403C031D282852
:10204000DC30E3000A1209250A167808CB002A289A
:102050000130C90019284B08E7000A1274220A1639
:102060004E304607840083134B088000C60A0E28B2
:10207000480B3B284928DC30E3000A1209250A16E0
:102080007808CA004A08233C031D48280130C800CC
:102090003828C801C601C9017B3003178D00003004
:1020A0008F000A120313AB220A164608033C031CD6
:1020B0007F28DC30E3000A1209250A167808CB00D5
:1020C000C908031D72284B08403C031D6F28DC30F3
:1020D000E3000A1209250A167808CB00712801309E
:1020E000C90060284B08E7000A1274220A16503013
:1020F0004607840083134B088000C60A5528480B06
:1021000082289028DC30E3000A1209250A16780894
:10211000CA004A08233C031D8F280130C8007F28CD
:10212000C801470B9428A2294D08CC00E5014C08B2
:10213000E4000A12A7230A164E087802031D872915
:1021400001304C07D500E5015508E4000A12A72329
:102150000A164F087802031D6C2902304C07D5007F
:10216000E5015508E4000A12A7230A165008780270
:10217000031D572903304C07D500E5015508E4003D
:102180000A12A7230A1651087802031D42290430B7
:102190004C07D500E5015508E4000A12A7230A16EA
:1021A00052087802031D2D2905304C07D500E501A2
:1021B0005508E4000A12A7230A1653087802031DE3
:1021C000182906304C07D500E5015508E4000A122D
:1021D000A7230A167808313C031D0329853003170D
:1021E0008D0000308F000A120313AB220A1606304E
:1021F000D500FA30E8000A12DB210A16D50BF928BF
:102200000130C70017298B3003178D0000308F0075
:102210000A120313AB220A160630D500FA30E80082
:102220000A12DB210A16D50B0E290130C7002C2912
:10223000913003178D0000308F000A120313AB2278
:102240000A160630D500FA30E8000A12DB210A1619
:10225000D50B23290130C7004129993003178D0080
:1022600000308F000A120313AB220A160630D50085
:10227000FA30E8000A12DB210A16D50B38290130A2
:10228000C7005629A13003178D0000308F000A12B5
:102290000313AB220A160630D500FA30E8000A1202
:1022A000DB210A16D50B4D290130C7006B29A93057
:1022B00003178D0000308F000A120313AB220A1699
:1022C0000630D500FA30E8000A12DB210A16D50BD9
:1022D00062290130C70086290730CD074D08493CE7
:1022E00003188629B13003178D0000308F000A12C1
:1022F0000313AB220A160630D500FA30E8000A12A2
:10230000DB210A16D50B7D290130C700A129073032
:10231000CD074D08493C0318A129B93003178D009A
:1023200000308F000A120313AB220A160630D500C4
:10233000FA30E8000A12DB210A16D50B9829013081
:0A234000C70091288A110A12592FD4
:02400E00422F3F
:00000001FF
;PIC16F877A
;CRC=4C7D  CREATED="25-nov-21 11:32"
